:1000000080310D28080008007E14803120007F0810
:10001000F0007008FF007E10090080310F28FC01FD
:10002000A03084000030850043308A313B2280318B
:10003000313084000130850008308A313B22803124
:10004000A03084000130850040308A313B2280316D
:10005000203084000330850040308A313B227E10FE
:1000600020008A31412A20005208013A031D4A2803
:1000700050081F390038031D4A282100DC172000D2
:100080005108033A031D48282100C601C60A4A2820
:100090002100C60120005208031D080050081F3926
:1000A000023A031D080054080F39003A03190800EA
:1000B00054080F39EB0003306B02031808002100CD
:1000C0004B08203A031D0800DC172000D41B7728BA
:1000D00054080F39B43E860087010108EB006B0815
:1000E0002100E600200054080F39AE3E862820008B
:1000F00054080F39B13E860087010108EB006B08F8
:100100002100E600200054080F39AB3E860087012D
:100110000108EB006B082100E50065189628FB300C
:100120002000EB006B082100E605972866152000EB
:10013000D41BA228210066082000EB0054080F39C8
:10014000B43EA928210066082000EB0054080F39AE
:10015000B13E860087016B0881005108033A031DF8
:10016000CF282100660886008701811FC42820004F
:10017000D41BBE2854080F39AE3EC12854080F398D
:10018000AB3E86008701811484302000EB00210003
:1001900066088600870120006B088104080004308F
:1001A000EB006B082100E606660886008701811FC8
:1001B000FB287F302000EB002100660886008701C5
:1001C00020006B0881052100660886008701011761
:1001D00005302000E6000030E7002100660820001E
:1001E000EB006B08E8000130E9000030EA008C31D8
:1001F000222480310029210066088600870101172A
:1002000004302000EB006B082100E606E5180D29FC
:10021000660886008701811F35292000D41B142918
:1002200054080F39AE3E172954080F39AB3E8600EB
:10023000870181103B30EB002100660886008701B2
:1002400020006B0881050530E6000030E700210042
:1002500066082000EB006B08E8000130E900003080
:10026000EA008C31222480313F293B302000EB0012
:10027000210066088600870120006B0881052000A8
:1002800054080F39983EEB00EC010E30EC3D6B0842
:100290002100E30020006C082100E400FE30200073
:1002A000EB002100630886006408870020006B08CB
:1002B000810508002100CB08031D6E293D008E0139
:1002C0009201163091009F3097007B3092008E197A
:1002D0006B298E1567292100CB01CB0A4B08013A07
:1002E000031D7E293D008E1A7E2990019201121471
:1002F000121602302100EC006C08CB003D001019F2
:10030000121D8B29FB302100EC006C083D0090058C
:100310008A31902281313D008E1C912920001211DA
:1003200008001018121CA12985312C2581310430B8
:100330002100EC006C08CB00FE30EC006C083D00A6
:100340009005101A121EAD298A31A6228131EF3094
:100350002100EC006C083D009005101FD029121FF1
:10036000BE2973302000E6000030E700E8010130CC
:10037000E9000030EA008C3122248131BF302100B5
:10038000EC006C083D00900521004E080319CA29B5
:100390000130CE02CE08031DD0298D31EA258131EE
:1003A0003D00901A921ED7298A31DA2281313D0010
:1003B0009018921CEA29FF302000E6007F30E70009
:1003C000E8010130E9000030EA008C31222481315B
:1003D0003D009301043021004B020318F229200054
:1003E000121108003D00921D432A2100EE013C2A13
:1003F0000F082100EC006C08E200620CEC00EC0C31
:100400006C0C0F39ED006D08D500F730EC006C086E
:100410003D00900521006219102A5508AE3E122AAF
:100420005508AB3E8600870101080139EC00013018
:10043000EC0601086C06FE396C068100D508031D28
:10044000252A8E31B2268131372A72302000E6000B
:100450000030E700E2302100EC006C082000E800EA
:100460000030E9000030EA008C3122248131013073
:100470002100EC006C08EE0704306E020318432ADA
:100480003D009019F82920001211080020005008A2
:100490001F39013A031D0800500E890C0339013A37
:1004A000031D080054080319A32A5408013A031D28
:1004B0000800A32A31302100DA000130DB000830C7
:1004C000DD000030DE005C14DC1708003130210054
:1004D000DA000130DB00DC1708002000570821009B
:1004E000A401A407200056082100A301A307273078
:1004F000F1000130F2007108A0007208A100613023
:10050000A5000C30A600A217080020302100DA0058
:100510000130DB000730DD000030DE00C130F100CB
:100520007108DC00080020005208F1007108210069
:10053000D400541C9E2A22008E11A02A22008E155F
:100540002100DC17080020005108003A03195A2A3C
:10055000013A0319662A213A03196D2A013A03194F
:10056000852A033A0319932AB52A0800F600710870
:100570000319BD2A7608B13EBF2A7608B43E86002C
:1005800087010108F4007408F700F708031DCA2A60
:10059000003008007208F4000230F5007708023ECF
:1005A000860087017408C03F7508C13F7308F400D6
:1005B000770A86008701740881004030F4007708CC
:1005C00086008701740881058830F400770886006A
:1005D00087017408810471080319F32A0430F400B8
:1005E0007608B13EF72A0430F4007608B43E86005F
:1005F000870174088106770808008B316E23080094
:10060000C53483344B3483347F34833408348334A7
:100610000934023443340034023401340034C03429
:1006200032340934043400340034013402340234E6
:1006300001340034053424340034103401340434DB
:1006400024340234023405342434063400340134B2
:100650000534243401340034013407340534813442
:1006600003340A34003401340934043401340034CE
:1006700002340A34003400340034073405340234C0
:1006800002344034003400340734053482340234F8
:10069000403400340034343403344D34003469348D
:1006A000003463340034723400346F340034633403
:1006B0000034683400346934003470340034203439
:1006C0000034543400346534003463340034683406
:1006D00000346E3400346F3400346C3400346F34C2
:1006E0000034673400347934003420340034493421
:1006F00000346E340034633400342E340034343427
:10070000033443340034443400344334003420345C
:10071000003452340034533400342D340034323435
:10072000003433340034323400342034003445345F
:1007300000346D340034753400346C34003461346A
:10074000003474340034693400346F3400346E344F
:1007500000342034003444340034653400346D34C3
:1007600000346F3400341234013400340234023463
:10077000003400340834D83404340A3400340034EB
:1007800001340134023400340134043403340934B4
:100790000434210040080319DB2B40088600870140
:1007A000010D010D0139F800F90178082000E00081
:1007B0007908E100DE2B2000E001E101610860041E
:1007C000031D080021005108033A0319D101D10883
:1007D000031908005108023A031DFE2BF101F10A2A
:1007E000F201F30102308231B622F80078082100CC
:1007F000C0000330F8007808D10008005108013A21
:10080000031D080041305202031C082C40300A2C02
:1008100021005208F80078082000E3006303FF3A43
:1008200021005207F8007808D2002030F80078083C
:10083000BB0020006308F8007808E2002100CF0820
:1008400003193B2C582C21003D08860001308700FD
:100850000108F8003B088600023087007808810014
:100860000130F8007808BB070130F8007808BD07B0
:1008700001302000E2022000E20803195C2C232C46
:1008800021003D088600013087000108F8003B0880
:10089000860002308700780881000130F80078086F
:1008A000BB070130F8007808BD0701302000E202E4
:1008B0002000E208031D402C2100D208031D6C2CEF
:1008C00020006308403A031D672C0230682C033077
:1008D000F80078082100D100F101F10A2030F80079
:1008E0007808F20020006308F9007908F30002306C
:1008F0008231B622FA007A082100C00008002100E7
:10090000570886008701413F2000EA006A08FA0084
:10091000FB017B0821002402031D902C7A0823028E
:100920000318972C2308FA007A082000EA00033005
:10093000A03E8600870120006A08FA00FB01FA0940
:10094000FB09FA0A0319FB0A403F7A072100A300BA
:10095000413F7B3DA4002000E9016A0869020318B9
:10096000C82C6908583E860087010108FA0021005A
:1009700020088600210887007A0881000130A0073E
:100980000030A13D0130FA007A082000E907AD2CC3
:100990000330A03E86008701160001040319F92CDC
:1009A0000830FA007C0A860087017A0881005830F6
:1009B000FA000030FB007C08023E860087017A08BE
:1009C000C03F7B08C13F2100570886008701011BFB
:1009D000F12CC830FA007C08860087017A08810073
:1009E00008008830FA007C08860087017A088100B8
:1009F00008000830FA007C0A860087017A08810026
:100A00005030FA000030FB007C08023E860087016F
:100A10007A08C03F7B08C13F8430FA007C0886001A
:100A200087017A0881000530A03E86008701160004
:100A300001040319242D0530A03E86008701413FA3
:100A40008A00403F0A0085312100A213CA08031D15
:100A500008008D31EA250800210012113D009301A4
:100A6000900198010E30F4009930F300F501023046
:100A7000750203184C2D73088600740887008101E5
:100A80000130F3070030F43D0130F1007108F50743
:100A900002307502031C3B2D16303D0091009F3043
:100AA00097007B309200F6010C3076020318712D0E
:100AB0007608F1000130F135FF3E031D5B2D7135E5
:100AC000203E860087010030C03F0030C13FC23F5A
:100AD000C33F0130F1007108F6070C307602031CA9
:100AE000582D3D000E1796010E120E133D00901D5D
:100AF000832DF730F100710890052100DC01A2017F
:100B0000A301A401762D0130F10071082100CC0071
:100B10000130F1007108CD00C801C901C701F6011B
:100B2000033076020318B02D7608B13E86008701A7
:100B300081017608B43E8600870181017608AB3ECC
:100B40008600870181017608AE3E8600870181011B
:100B50000130F1007108F60703307602031C942D72
:100B60002830F10071082100B10016303D009800D6
:100B70005030F1000030F20071082000A20072082D
:100B8000A3000830A1008430F1007108A00021000A
:100B9000E101CB0108002100DC170E302000EC0041
:100BA0009930EB00ED0102306D020318E82D6B085F
:100BB00086006C08870081010130EB070030EC3DB6
:100BC0000130FB007B08ED0702306D02031CD72DBE
:100BD0000030F1000030F2003030F3000030F4005B
:100BE00020308A31BD2285313D000E172000EE01F4
:100BF00003306E0203180E2E6E08AB3E860087018E
:100C000081016E08AE3E8600870181010130FB0044
:100C10007B08EE0703306E02031CFC2D0030F10050
:100C20000030F2000230F3000030F400DF308A318F
:100C3000BD2285313D000E132830FB007B082100CA
:100C4000B1002030FB007B08D7005708FB007B0871
:100C5000FC0020005208FB007B082100E100E108B5
:100C6000031D372E1030FB007B08CB00080001303D
:100C70002000E6000030E700E130FB007B08E800E0
:100C80000130E9000030EA008C3122242030FB00E2
:100C90007B082100CB00080020005008803A031D8B
:100CA0000800C030F10071082100DC00B82EB3301C
:100CB0002100DA008330DB001230DD000030DE007E
:100CC000080020005208F100F201F135F20D063063
:100CD000710784008330723D8500003F2100DA00F7
:100CE000013FDB005B08F2005A08F1000230710797
:100CF000840072080318720A85000008F300730864
:100D0000DD005B08F2005A08F1000330710784002F
:100D100072080318720A85000008F3007308DE00E9
:100D200008000330200052020318B22E5208F100CE
:100D3000F201F135F20D0030710784008330723D0D
:100D40008500003F2100DA00013FDB005A088400E3
:100D50005B0885000008F100F2017108DD007208EF
:100D6000DE0008002100DC0108002100DC01080091
:100D700020005308013A0319572E033A0319612E34
:100D8000013A0319912EB52E08008F3120278631A4
:100D9000203021004B02031C08003D008E18080083
:100DA0002100C408031DE82E40302000E400640840
:100DB000F80020308D31922586312000E50065084D
:100DC0002100C20042080319E82EC401C40AC5016B
:100DD00044080319042F23009E18F02E2100042F2D
:100DE00021004508203E86000330870001088A3133
:100DF0003622863101302000E40064082100C50756
:100E0000450842060319C4012000911E252F3F30DA
:100E1000210043020318252F8A315B2286312000EE
:100E2000E40021004308A03E860001308700200036
:100E3000640881000130E40064082100C30743080E
:100E4000A03E86000130870081012100D108031DEA
:100E5000372F43080319372F43082000E4006408A4
:100E6000F100A0308A316B2286312100C301833129
:100E7000C92308003D000E122100DC1B702FA21FA9
:100E80004E2F0230F6007608D300C908031D4A2F02
:100E90008C31EE242100CD01CC0108000830F60091
:100EA0007C0A86008701760881005030F600003009
:100EB000F7007C08023E860087017608C03F77086D
:100EC000C13F8C30F6007C088600870176088100DF
:100ED0008430F6003108860087017608810008001A
:100EE0002000D01F852F2100D301D30AC808031D7D
:100EF0007C2F8C31EE2487312100CD01CC01CA0832
:100F0000031D08008D31EA2508000230F60076083E
:100F10002100D3000830F6007C0A8600870176089D
:100F200081005030F6000030F7007C08023E860059
:100F300087017608C03F7708C13F8430F6007C08FF
:100F40008600870176088100CD01CC01CA08031D07
:100F500008008D31EA25080000302000E300003051
:100F6000E2000030E1000030E00074087304720415
:100F700071040319F62FE401E40AF41BCB2F0130AE
:100F8000F135F20DF30DF40D890BC02F0130F9008E
:100F90007908E407BD2F0130E035E10DE20DE30DE6
:100FA000890BCC2F74087802031DE02F7308770299
:100FB000031DE02F72087602031DE02F71087502F1
:100FC000031CEB2F7108F5027208F63B7308F73B20
:100FD0007408F83B60140130F436F30CF20CF10C99
:100FE000890BEC2F0130E402031DCB2F6308F400C2
:100FF0006208F3006108F2006008F10008000800D0
:101000008D315C2D8D315F2D8D31912D8D315F2D89
:101010008D31912D8D31432D8D314C2D8D317A2D8A
:101020008D31522D8D314F2D8D31622D8D316E2DA3
:041030008D31912D40
:1014620008000800823146220800F10071082300BA
:101472009A000800640080010131890B3C2A003483
:101482008A314B228A3181315A218A318631C526ED
:101492008A31442A23008C018E0121009801FC30FC
:1014A2009900903027009B008B311D238A318531B2
:1014B2002C25080023009D1C652A1D121908F10025
:1014C2007108F2001D16692A1908F1007108F2006C
:1014D20072080800F3002100D108031D08007308F8
:1014E200F2007208BD007108F2007208D200CF014A
:1014F200CF0AD101D10A080021008E160E12243023
:1015020023009E0090309D0071309B0002309C00B1
:1015120008309F001908F1007108F200080021004C
:10152200C70174302000E6000030E700E801003017
:10153200E9000030EA008C3122243D008E101211A5
:10154200FB30FB007B08900508003D001215EF30D0
:10155200FB007B0890058E142100C701C70A753075
:101562002000E6000030E700E8010030E90000302A
:10157200EA008C3122240800F7007708F50075088C
:10158200F6000130F3020030F43BFF307406031D15
:10159200CC2AFF307306031908007108F50076089B
:1015A20086008701750881000130F5007508F6078D
:1015B200C22A3D00181CF52A21005708860087011F
:1015C2000108803A031DF32A3108860087010108C9
:1015D200843A031DF32A8C30F100570886008701F4
:1015E200710881003D001810DF30F100710890058C
:1015F20008002000E200781D032BF10162088B3104
:10160200A9238A31F81C0B2BF101F10A2000620890
:101612008B31A92320006208983EF900FA010E30AE
:10162200FA3D7908E0007A08E10060088600610866
:1016320087007808810008008A317D228B31F4010D
:10164200403074020318332B7408A03E8600013028
:10165200870081010130F3007308F40740307402FF
:10166200031C252B2100C301C201D601FC30F3006B
:10167200730822008E05FC30F300730821008E05EA
:10168200080021005308023A031D4A2B84317F24AB
:1016920008002100D301BF08031D6B2B0830200076
:1016A200EB007C0A860087016B0881005030EB005A
:1016B2000030EC007C08023E860087016B08C03FC8
:1016C2006C08C13F8C30EB007C08860087016B08F8
:1016D200810008002100BF01080000302200A300A1
:1016E2000030A2004B30A1000030A000A401A501EF
:1016F20008302000E30063082200A6002100D00188
:101702001A302000E3006308F80001308A31FA221F
:101712008B311E302000E3006308F80002308A316A
:10172200FA228B31F101A0302000E3006308F200BD
:101732004030E4006408F30002308231B622200017
:10174200E50065082100C100C0018E11D101080029
:10175200F6002030F2007208F7007108F200013042
:10176200F235890BB12B7608F3000130F335FF3ED9
:10177200031DB72B73357207F4000130F435FF3EB9
:10178200031DBF2B7435F5007508F707770886002F
:1017920087018113F108031DD32B7708F200760825
:1017A200B43ED72B7708F2007608B13E8600870157
:1017B2007208810077088600870101137708043ECA
:1017C20086008701011708002100D901CA01C8015A
:1017D200C901BF01D3017F30E700310886008701CC
:1017E200670881050430E7006708B1067F30E7002B
:1017F200310886008701670881050430E700670821
:10180200B1067F30E7007C08860087016708810502
:10181200DC01DD01DE01A201A301A4018D313B2522
:101822008B3103302000E6000030E700E801003091
:10183200E9000030EA008C3122248B3187313A27CB
:101842000800382C8731FF27080080310220080069
:101852008031032008008231FD2208008A313222C1
:1018620008008A31332208008A3131220800200020
:101872006708003A0319412C7F3A03195B2C602C4C
:101882006608013A03192C2C033A03192F2C013A4A
:101892000319322C063A0319602C773A0319602C8B
:1018A200013A0319232C073A0319292C013A031987
:1018B200262C602C6608FF3A0319352C602C080090
:1018C200003022002A02031D702C01302902031D60
:1018D200702CC2302802031D702C0130270203181D
:1018E20008002A08A3002908A2002808A100270846
:1018F200A0002308F4002208F3002108F2002008C7
:10190200F1000030F800B730F7001B30F60000306D
:10191200F5008731AC27FF3071072000E500FF306A
:10192200723DE600FF30733DE700FF30743DE80092
:10193200650823009B002000660823009C00080025
:101942002000D801D901D52C2100DC172000581421
:1019520021004608013A031DE12C2000D814E12C95
:101962002100DC17E12C2100DC172000D41BBD2C48
:1019720054080F39B43EC02C54080F39B13E8600CA
:1019820087010108F1007108F200720886008701E0
:10199200811FE12C720886008701011DE12C0130B4
:1019A200F1007108D800E12C50081F39003A0319E0
:1019B200A52C013A0319B12C033A0319B42CE12CDA
:1019C2002100DC1F08005830DA000030DB005C1414
:1019D2000230F1007108DD0008002100C801C901D0
:1019E2005308023A031D102D0830F4007C0A8600C9
:1019F2008701740881005830F4000030F5007C083B
:101A0200023E860087017408C03F7508C13FC83096
:101A1200F4007C08860087017408810008005E08D3
:101A220020005702031D192D21005D0820005602D7
:101A32000318242D57082100DE01DE072000560876
:101A42002100DD01DD078F3190275830F40000308E
:101A5200F50021003108023E860087017408C03F6C
:101A62007508C13FC830F400310886008701740848
:101A7200810008002000500E890C0339003A031D32
:101A82000800862D2100DC1708302000EF006F08C7
:101A92002100CB00080086314C2608008531CB2579
:101AA2000800E1302100DA000030DB005C14DD01C7
:101AB200DD0ADC1708008C31A124080080313320B4
:101AC200080020005408DF3E2100DA000030DB006D
:101AD2005C14DD01DD0ADC1708002100DC172000A0
:101AE2005208EF005408DF3E860087016F0881002C
:101AF20008000230E6000030E700E8010030E900AB
:101B02000030EA008C3122240800200051088400B1
:101B12000D3004020318080088310435003E8200AB
:101B220008002000E0002100D00141080319A72D80
:101B3200410886008701010D010D0139F900FA0102
:101B420079082000E1007A08E200AA2D2000E101D4
:101B5200E20162086104031DE72D2100410A8600AB
:101B62008701780801020318BB2D4108860087010E
:101B7200413FF800D001780850020318D72D5008D1
:101B8200A03E8600023087000108F90050082000BC
:101B92006007FA007A08860003308700790881001E
:101BA2000130F90079082100D007BC2DF101A030E5
:101BB200F9007908F2004030FA007A08F3000230A6
:101BC2008231B622FB007B082100C10021005008AF
:101BD20008002100CC08031D08000130F100710843
:101BE200CC00CD08031D08000130F1007108CD00C2
:101BF2005308023A031D092E310A8600870181012A
:101C0200C830F100310886008701710881000800A0
:101C12005308013A031D0800BF010830F100570ABA
:101C220086008701710881005030F1000030F20017
:101C32005708023E860087017108C03F7208C13F03
:101C42008430F10057088600870171088100BF01C6
:101C5200BF0A0830F1007C0A860087017108810002
:101C62005030F1000030F2007C08023E860087010D
:101C72007108C03F7208C13F8030F1007C088600C5
:101C82008701710881000800210031088600870160
:101C92000030011B01302000E9000430FA007A080C
:101CA2002100B1064B08083A031D652E2000520898
:101CB2003D00960016080319602E1030612E043084
:101CC200FA007A082100CB005308013A031D9B2E2B
:101CD2005830FA000030FB003108023E86008701CE
:101CE2007A08C03F7B08C13F8F3190278E31210097
:101CF2005908023A031D852E8430FA003108860005
:101D020087017A08810008002000E908031D922E4D
:101D1200C830FA0021003108860087017A08810064
:101D220008008830FA0021003108860087017A080D
:101D320081000800A21FB02E0530A03E8600870158
:101D4200160001040319AE2E0530A03E860087015D
:101D5200413F8A00403F0A008E312100A213D30185
:101D620008002D302100E8006808CE006208FD3925
:101D7200031D152F62363F39E8000130E835FF3E7A
:101D8200031DBF2E6835203EE9006908D7005708B9
:101D9200E8006808FC000430E8006808FC06570800
:101DA20086008701010C890C0F390D3A031D122F91
:101DB200EB0108306B020318032F5708023E86001E
:101DC2008701403FE800413FE90068088600690852
:101DD20087000108EA006B08503E860087016A0806
:101DE20081005708023E8600870101308107413198
:101DF2000318810A0130E8006808EB0708306B021B
:101E0200031CDE2E5030E8000030E9005708023E85
:101E1200860087016808C03F6908C13F8B31E5230E
:101E220008008B3142230800FD3021006205E800E2
:101E32006808043A031D08008E3145260800210077
:101E420038083704031D292F1030B7002730B80097
:101E52000130B7020030B83B3D008E1C432F2100F9
:101E620038083704031D080022000E183B2F2200F9
:101E72000E143D2F22000E100E1C412F8E1408004E
:101E82008E1008002100CB08031D4B2F22000E10DC
:101E92008E10080021004B08013A031D542F220026
:101EA2000E148E14080021004B08023A031D5D2F08
:101EB20022000E148E10080021004B08043A031D64
:101EC200662F22000E108E14080021004B08103AD3
:101ED200031D792F38083704031D080022000E184D
:101EE200752F22000E14772F22000E108E1008007C
:101EF20021004B08203A031D080038083704031D4F
:101F0200080022000E18882F22000E148A2F2200A9
:101F12000E100E1C8E2F8E1008008E140800083032
:101F2200F1007108F300003021005E02083003194D
:101F32005D020318AE2F5D08F1007108F300D908A5
:101F4200031DA62FD901D90AAE2F5908013A031D44
:101F5200AE2F0230F1007108D9000330DA3E86005C
:101F620087017308F100F201F109F209F10A03197C
:101F7200F20A403F7107DD00413F723DDE00730807
:101F8200F100310A86008701710881005830F100A2
:101F92007108D8005C1CE32FFC2F5A0884005B08F0
:101FA20085000008F1005808860087017108810049
:101FB2000130DA070030DB3D0130F1007108D8074B
:101FC2000130F302F30803190800CE2F5A088400E7
:101FD2005B0885000008F100580886008701710837
:101FE20081000130DA070030DB3D0130F100710879
:0E1FF200D8070130F302F30803190800E72FA7
:020000040001F9
:04000E0084CFCFFFCD
:00000001FF
